:020000040800F2
:1000000000500020B1090008010A0008010A000898
:10001000010A0008010A0008010A000800000000A7
:10002000000000000000000000000000010A0008BD
:10003000010A000800000000010A0008A9080008E1
:10004000010A0008010A0008010A0008010A000864
:10005000F1080008010A0008010A0008010A000866
:10006000010A0008010A0008010A0008010A000844
:10007000010A0008010A0008010A0008010A000834
:10008000010A0008010A0008010A0008010A000824
:10009000010A0008010A0008010A0008010A000814
:1000A000010A0008010A0008010A0008010A000804
:1000B000010A0008010A0008010A0008010A0008F4
:1000C000010A0008010A0008010A0008010A0008E4
:1000D000010A0008010A0008010A0008010A0008D4
:1000E000010A0008010A000800000000010A0008D7
:1000F000010A0008010A0008010A0008010A0008B4
:10010000010A0008010A0008010A0008010A0008A3
:10011000010A0008010A0008010A0008010A000893
:10012000010A0008010A0008010A0008010A000883
:1001300010B5054C237833B9044B13B10448AFF321
:1001400000800123237010BD40000020000000004B
:100150004C0A000808B5034B1BB103490348AFF331
:10016000008008BD00000000440000204C0A000888
:1001700080B483B000AF0346FB71FB79002B02D043
:10018000012B07D00DE0094B1B69084A43F080039F
:10019000136106E0054B064A5A60044B054A5A6053
:1001A00000BF00BF0C37BD4680BC70470020024036
:1001B00023016745AB89EFCD80B483B000AF034620
:1001C000FB71FB79002B02D0012B07D00DE0094B0E
:1001D0001B69084A23F40073136106E0054B064AC5
:1001E0009A60044B054A9A6000BF00BF0C37BD46B9
:1001F00080BC70470020024023016745AB89EFCDEA
:1002000080B582B000AF0346FB710120FFF7B0FF5D
:1002100000BF194BDB6803F00103002BF9D1164B2B
:100220001B69154A43F002031361FB7903F50033A0
:100230009A02114B5A61104B1B690F4A43F040035D
:10024000136100BF0C4BDB6803F00103002BF9D1F5
:10025000094BDB68084A43F02003D360064B1B6957
:10026000054A23F0020313610020FFF781FF00BF5E
:100270000837BD4680BD00BF0020024080B586B073
:1002800000AFF860B9601346FB800120FFF770FFF4
:1002900000BF1D4BDB6803F00103002BF9D11A4BA3
:1002A0001B69194A43F00103136100237B6119E0C4
:1002B0007B695B00BA681A44FB6812881A80FB6885
:1002C0000233FB6000BF104BDB6803F00103002B1F
:1002D000F9D10D4BDB680C4A43F02003D3607B69F6
:1002E00001337B61FB887A699A42E1DB064B1B692B
:1002F000054A23F0010313610020FFF739FF00BF17
:100300001837BD4680BD00BF0020024080B584B0D4
:1003100000AF03460A46FB711346BB7100BF324B68
:10032000DB6803F00103002BF9D10120FFF720FF68
:100330000120FFF741FF00BF2B4B1B695B0A03F055
:100340000103002BF8D0284B1B69274A43F02003F8
:100350001361254B1B69244A43F04003136100BF1E
:10036000214BDB6803F00103002BF9D11E4B1B6905
:100370001D4A23F0200313611B4BDB681A4A43F02C
:100380002003D360184B1B69174A43F01003136115
:10039000164BA5221A80FB7903F18053A3F58063E5
:1003A0005B00FB60FB68BA7992B21A8000BF0E4B0B
:1003B000DB6803F00103002BF9D10B4B1B690A4AE0
:1003C00023F010031361084BDB68074A43F0200356
:1003D000D3600020FFF7F0FE0020FFF7C9FE00BF4A
:1003E0001037BD4680BD00BF0020024000F8FF1F4F
:1003F00080B485B000AF0346FB71FB7903F18053F5
:10040000A3F580635B00FB60FB681B887B817B89B5
:10041000DBB218461437BD4680BC704790B484B038
:1004200000AF0446084611461A462346FB710346B0
:10043000BB710B467B7113463B713B799B00DAB273
:100440007B791344FB73BB79072B41D8FB79012BD4
:1004500017D0022B28D0002B00D086E0454B1B681C
:10046000BA7992000F2101FA02F2D2431340F97BCC
:10047000BA79920001FA02F211463E4A0B44136027
:1004800073E03D4B1B68BA7992000F2101FA02F22A
:10049000D2431340F97BBA79920001FA02F2114675
:1004A000354A0B44136060E0344B1B68BA79920004
:1004B0000F2101FA02F2D2431340F97BBA7992007C
:1004C00001FA02F211462D4A0B44136000BF4CE0C2
:1004D000BB79072B49D9BB790F2B46D8FB79012B68
:1004E00019D0022B2CD0002B00D03EE0214B5B68B2
:1004F000BA79083A92000F2101FA02F2D24313406E
:10050000F97BBA79083A920001FA02F21146194AC7
:100510000B44536029E0184B5B68BA79083A9200A3
:100520000F2101FA02F2D2431340F97BBA79083A5B
:10053000920001FA02F211460F4A0B44536014E094
:100540000E4B5B68BA79083A92000F2101FA02F269
:10055000D2431340F97BBA79083A920001FA02F2C9
:100560001146064A0B44536000BF00BF1037BD461A
:1005700090BC704700080140000C01400010014091
:1005800080B483B000AF0346FB710B46BB711346CA
:100590007B71BB790F2B3AD87B79012B1AD1FB7970
:1005A000012B0AD0022B0ED0002B00D02FE0BB79FC
:1005B00001229A40184B1A6129E0BB7901229A4026
:1005C000164B1A6123E0BB7901229A40144B1A6141
:1005D00000BF1CE07B79002B19D1FB79012B0AD0DD
:1005E000022B0ED0002B00D011E0BB7901229A40E3
:1005F000094B5A610BE0BB7901229A40074B5A61C3
:1006000005E0BB7901229A40054B5A6100BF00BF4B
:100610000C37BD4680BC704700080140000C01400B
:100620000010014080B483B000AF0346FB71FB793A
:1006300003F01F03012202FA03F1054AFB795B096B
:10064000DBB242F8231000BF0C37BD4680BC7047B8
:1006500000E100E080B500AF104B114A1A600F4B6B
:100660001B68104A13600D4B1B685B080E4A136031
:100670000A4B1B685B080D4A136004220421072003
:1006800000F098F80121012000F072F8012000F03C
:100690000FF8012000F040F800BF80BD640000208A
:1006A00000127A006C00002068000020700000201A
:1006B00080B487B000AF0346FB714CF25033FB604F
:1006C00000237B610123FB74FB79012B11D0FB79A3
:1006D000112B0ED0FB79192B0BD00023FB7413E0E8
:1006E0007B6901337B610023FB747A69FB689A4262
:1006F00009D0084B1A68FB7922FA03F303F00103CF
:10070000002BEDD000E000BFFB7C18461C37BD4637
:1007100080BC70470010024080B483B000AF034635
:10072000FB71FB79112B0BD0192B11D0012B00D0B1
:1007300016E00E4B5B680D4A23F0030353600FE095
:100740000A4B5B6823F00303084A0133536007E058
:10075000064B5B6823F00303044A0233536000BF77
:1007600000BF0C37BD4680BC704700BF0010024080
:1007700080B483B000AF03460A46FB711346BB71D9
:100780000B4B1B68FA79013A012101FA02F2D243BC
:100790001340B979FA79013A01FA02F21146044A92
:1007A0000B43136000BF0C37BD4680BC704700BFD1
:1007B0000010024080B483B000AF0346FB710B46CB
:1007C000BB7113467B71114B5B6823F0F003FA7920
:1007D000120111460D4A0B4453600C4B5B6823F425
:1007E000E063BA7912021146084A0B445360074B82
:1007F0005B6823F460537A79D2021146034A0B44B2
:10080000536000BF0C37BD4680BC704700100240EB
:1008100080B483B000AF0346FB710B46BB71134637
:100820007B71FB79042B10D11E4B5B69BA790121D6
:1008300001FA02F2D24313407979BA7901FA02F24D
:100840001146184A0B43536126E0FB79082B10D15F
:10085000144BDB69BA79012101FA02F2D243134049
:100860007979BA7901FA02F211460E4A0B43D36143
:1008700012E0FB790B2B0FD10A4B9B69BA7901214E
:1008800001FA02F2D24313407979BA7901FA02F2FD
:100890001146044A0B43936100BF0C37BD4680BC30
:1008A000704700BF0010024080B500AF0D4B1B78B1
:1008B000002B11D10C4B1B680B4A23F00103136072
:1008C000094B1B68084A23F002031360064B002201
:1008D0005A60054B00229A60044B1B68984700BF82
:1008E00080BD00BF6000002010E000E05C00002040
:1008F00080B400AF00BF00BFBD4680BC70470000A1
:1009000080B584B000AFFFF7A5FE012204210B20C3
:10091000FFF77EFF012204210420FFF779FF002367
:1009200001220D210220FFF779FD0420FFF77AFE56
:100930000420FFF765FC102218491948FFF79EFCB8
:10094000102218491848FFF799FCDD210320FFF712
:10095000DDFC0320FFF74CFD0346FB7101220D2156
:100960000220FFF70DFE0023FB6002E0FB6801336D
:10097000FB60FB680D4A9342F8DD00220D21022046
:10098000FFF7FEFD0023BB6002E0BB680133BB60E4
:10099000BB68064A9342F8DDE0E700BF0000002094
:1009A0000010000820000020101000083F420F0037
:1009B0000D488546AFF300800C480D490D4A0023D1
:1009C00002E0D458C4500433C4188C42F9D30A4A04
:1009D0000A4C002301E013600432A242FBD300F072
:1009E00011F8FFF78DFFFEE7005000200000002007
:1009F000400000206C0A0008400000207400002025
:100A0000FEE7000070B500250C4E0D4CA41BA41091
:100A1000A54209D100F01AF800250A4E0A4CA41B81
:100A2000A410A54205D170BD56F825309847013570
:100A3000EEE756F8253098470135F2E7640A0008DA
:100A4000640A0008640A0008680A0008F8B500BFD4
:100A5000F8BC08BC9E467047F8B500BFF8BC08BC9F
:040A60009E467047F7
:040A64005501000830
:040A68003101000850
:100A6C004100410041004100410041004100410072
:100A7C004100410041004100410041004100410062
:100A8C0030003000300030003000300030003000DA
:100A9C0030003000300030003000300030003000CA
:04000005080009B135
:00000001FF
