:020000040800F2
:10380000005000209D430008ED430008ED430008F0
:10381000ED430008ED430008ED4300080000000000
:10382000000000000000000000000000ED43000860
:10383000ED43000800000000ED430008ED430008E0
:10384000ED430008ED430008ED430008ED43000898
:10385000ED430008ED430008ED430008ED43000888
:10386000ED430008ED430008ED430008ED43000878
:10387000ED430008ED430008ED430008ED43000868
:10388000ED430008ED430008ED430008ED43000858
:10389000ED43000845420008ED430008ED430008F1
:1038A000ED430008ED430008ED430008ED43000838
:1038B000ED430008ED430008ED430008ED43000828
:1038C000ED430008ED430008ED430008ED43000818
:1038D000ED430008ED430008ED430008ED43000808
:1038E000ED430008ED43000800000000ED43000830
:1038F000ED430008ED430008ED430008ED430008E8
:10390000ED430008ED430008ED430008ED430008D7
:10391000ED430008ED430008ED430008ED430008C7
:10392000ED430008ED430008ED430008ED430008B7
:1039300010B5054C237833B9044B13B10448AFF3E9
:1039400000800123237010BD000000200000000053
:103950003844000808B5034B1BB103490348AFF3D3
:10396000008008BD0000000004000020384400086A
:1039700010F8012B11F8013B012A28BF9A42F7D019
:10398000D01A704790B482B000AF04460846114682
:103990001A462346FB710346BB710B467B711346E7
:1039A0003B71354BD3F80032334A43F00103C2F880
:1039B0000032314BD3F80432FA79012101FA02F2D4
:1039C000D2431340B979FA7901FA02F211462A4A30
:1039D0000B43C2F80432284BD3F80C32FA79012198
:1039E00001FA02F2D24313407979FA7901FA02F22C
:1039F0001146214A0B43C2F80C321F4BD3F8143244
:103A0000FA79012101FA02F2D24313403979FA79A5
:103A100001FA02F21146184A0B43C2F81432164951
:103A2000FB7948333A6941F83320134AFB7948332C
:103A3000DB0013447A695A600F4BD3F81C32FA79D1
:103A4000012101FA02F2D2431340397EFA7901FAD8
:103A500002F21146084A0B43C2F81C32064BD3F857
:103A60000032054A23F00103C2F8003200BF0837D4
:103A7000BD4690BC704700BF0064004080B485B074
:103A800000AF396011461A460346FB800B467B7136
:103A900013463B71FB885B051A463B68DB0013430A
:103AA0007A79920013433A7952001343FB60FB6822
:103AB00018461437BD4680BC7047000080B582B000
:103AC00000AF07237B600E4A7B689B0013600120D8
:103AD00000F018F800F07EF8094BDB69084A23F083
:103AE0008043D361064BDB69054A23F00043D36171
:103AF000002000F007F800BF0837BD4680BD00BFBA
:103B00000064004080B483B000AF0346FB71FB79D2
:103B1000012B20D0022B3AD0002B00D053E02C4BAD
:103B20001B682B4A23F001031360294B1B68284AAA
:103B300023F00203136000BF254B5B6803F0010311
:103B4000002BF9D100BF224B5B685B0803F0010337
:103B5000002BF8D137E01E4B1B681D4A43F00103D0
:103B600013601B4B1B681A4A23F00203136000BF4B
:103B7000174B5B6803F00103002BF9D000BF144B17
:103B80005B685B0803F00103002BF8D11BE0104BCE
:103B90001B680F4A23F0010313600D4B1B680C4A8E
:103BA00043F00203136000BF094B5B6803F001039D
:103BB000002BF9D100BF064B5B685B0803F00103E3
:103BC000002BF8D000BF00BF0C37BD4680BC70474B
:103BD0000064004080B400AF124BDB6923F47F73B4
:103BE00023F003030F4A0133D3610E4BDB6923F447
:103BF00070230C4A03F54023D3610A4BDB6923F49D
:103C0000E003084A03F58013D361064BDB6923F018
:103C10004073044A03F18053D36100BFBD4680BCAA
:103C2000704700BF0064004080B483B000AF03461B
:103C30000A46FB711346BB710A4B5B69FA79012195
:103C400001FA02F2D2431340B979FA7901FA02F289
:103C50001146044A0B43536100BF0C37BD4680BC7C
:103C6000704700BF0064004080B48BB000AFB96003
:103C70007A601A460346FB731346BB73002387F82A
:103C800027304B4AFB7B1B331B01134404331B6857
:103C9000DBB203F00F03DAB2BB681A70444AFB7B55
:103CA0001B331B0113441B689B08DBB203F00103A9
:103CB000DAB2BB681A723E4AFB7B1B331B0113440A
:103CC0001B685B0DC3F30A03BB61394AFB7B1B33E3
:103CD0001B0113441B68DB08C3F311037B61BB6842
:103CE0001B7A002B03D0BB68BA695A6005E0BB6938
:103CF0009A047B691A43BB685A602D4AFB7B1B33CD
:103D00001B01134404331B681B0ADAB2BB689A72A6
:103D1000274AFB7B1B331B0113441B685B08DBB288
:103D200003F00103DAB2BB685A72FB7B1B0103F19B
:103D30000802204B13443B620023FB611BE03B6AFB
:103D40005A1C3A621B78FB747B6893F832305A1C19
:103D5000D1B27A6882F8321019467B68FA7C5A54DC
:103D6000FA7CBB7B9A4203D1012387F8273008E015
:103D7000FB690133FB61BB681B781A46FB69934200
:103D8000DDDBFB7B002B06D0094B1B69084A43F0A7
:103D90002003136105E0064BDB68054A43F020036E
:103DA000D36097F8273018462C37BD4680BC704743
:103DB00000640040B065004090B484B000AF044699
:103DC000084611461A462346FB710346BB710B4653
:103DD0007B7113463B713B799B00DAB27B791344CC
:103DE000FB73BB79072B41D8FB79012B17D0022B32
:103DF00028D0002B00D086E0454B1B68BA79920092
:103E00000F2101FA02F2D2431340F97BBA799200F2
:103E100001FA02F211463E4A0B44136073E03D4B37
:103E20001B68BA7992000F2101FA02F2D2431340C3
:103E3000F97BBA79920001FA02F21146354A0B4435
:103E4000136060E0344B1B68BA7992000F2101FACD
:103E500002F2D2431340F97BBA79920001FA02F2DE
:103E600011462D4A0B44136000BF4CE0BB79072B71
:103E700049D9BB790F2B46D8FB79012B19D0022BDE
:103E80002CD0002B00D03EE0214B5B68BA79083A79
:103E900092000F2101FA02F2D2431340F97BBA7962
:103EA000083A920001FA02F21146194A0B44536093
:103EB00029E0184B5B68BA79083A92000F2101FAA1
:103EC00002F2D2431340F97BBA79083A920001FA20
:103ED00002F211460F4A0B44536014E00E4B5B682C
:103EE000BA79083A92000F2101FA02F2D243134044
:103EF000F97BBA79083A920001FA02F21146064AB1
:103F00000B44536000BF00BF1037BD4690BC7047E4
:103F100000080140000C01400010014080B483B053
:103F200000AF0346FB710B46BB7113467B71BB7937
:103F30000F2B3AD87B79012B1AD1FB79012B0AD0B0
:103F4000022B0ED0002B00D02FE0BB7901229A402B
:103F5000184B1A6129E0BB7901229A40164B1A616D
:103F600023E0BB7901229A40144B1A6100BF1CE088
:103F70007B79002B19D1FB79012B0AD0022B0ED0B3
:103F8000002B00D011E0BB7901229A40094B5A6105
:103F90000BE0BB7901229A40074B5A6105E0BB79DF
:103FA00001229A40054B5A6100BF00BF0C37BD4645
:103FB00080BC704700080140000C01400010014027
:103FC00080B483B000AF0346FB71FB7903F01F039D
:103FD000012202FA03F1054AFB795B09DBB242F8E0
:103FE000231000BF0C37BD4680BC704700E100E0E5
:103FF00080B500AF104B114A1A600F4B1B68104A76
:1040000013600D4B1B685B080E4A13600A4B1B685C
:104010005B080D4A136004220421072000F098F881
:104020000121112000F072F8112000F00FF811208A
:1040300000F040F800BF80BD1C00002000127A0094
:1040400024000020200000202800002080B487B039
:1040500000AF0346FB714CF25033FB6000237B61E1
:104060000123FB74FB79012B11D0FB79112B0ED0AE
:10407000FB79192B0BD00023FB7413E07B69013310
:104080007B610023FB747A69FB689A4209D0084B74
:104090001A68FB7922FA03F303F00103002BEDD039
:1040A00000E000BFFB7C18461C37BD4680BC704753
:1040B0000010024080B483B000AF0346FB71FB796F
:1040C000112B0BD0192B11D0012B00D016E00E4B69
:1040D0005B680D4A23F0030353600FE00A4B5B68F3
:1040E00023F00303084A0133536007E0064B5B6883
:1040F00023F00303044A0233536000BF00BF0C37B0
:10410000BD4680BC704700BF0010024080B483B041
:1041100000AF03460A46FB711346BB710B4B1B688D
:10412000FA79013A012101FA02F2D2431340B97936
:10413000FA79013A01FA02F21146044A0B4313607C
:1041400000BF0C37BD4680BC704700BF0010024066
:1041500080B483B000AF0346FB710B46BB711346BE
:104160007B71114B5B6823F0F003FA791201114661
:104170000D4A0B4453600C4B5B6823F4E063BA793F
:1041800012021146084A0B445360074B5B6823F444
:1041900060537A79D2021146034A0B44536000BF40
:1041A0000C37BD4680BC70470010024080B483B01D
:1041B00000AF0346FB710B46BB7113467B71FB7965
:1041C000042B10D11E4B5B69BA79012101FA02F26E
:1041D000D24313407979BA7901FA02F21146184AAA
:1041E0000B43536126E0FB79082B10D1144BDB699C
:1041F000BA79012101FA02F2D24313407979BA79EE
:1042000001FA02F211460E4A0B43D36112E0FB7928
:104210000B2B0FD10A4B9B69BA79012101FA02F2EB
:10422000D24313407979BA7901FA02F21146044A6D
:104230000B43936100BF0C37BD4680BC704700BF85
:104240000010024080B582B000AF0A230D4A0E492B
:104250000120FFF709FD0346FB71FB79002B0DD010
:10426000084B002283F8322006490848FFF780FBFC
:104270000346002B02D1064B01221A7000BF0837FB
:10428000BD4680BD2C000020600000205044000886
:104290006C00002080B58AB004AFFFF7A9FE0122B0
:1042A00004210B20FFF782FF012202210B20FFF7E0
:1042B0007DFF012219210820FFF778FF002301224A
:1042C0000D210220FFF778FD052300220B2100209D
:1042D000FFF772FD022302220C210020FFF76CFD84
:1042E0000023002240F225514FF48070FFF7C6FBF7
:1042F000F8600023002240F6FF714FF4F870FFF7DA
:10430000BDFBB8600023002240F225514FF48070BD
:10431000FFF7B4FB786001230293BB680193FB684D
:1043200000930123012201210A20FFF72BFB012129
:104330000420FFF779FCFFF7C1FB1520FFF740FED3
:10434000124B1B78012B02D1114B124A1A60012229
:104350000D210220FFF7E2FD00237B6102E07B6973
:1043600001337B617B690C4A9342F8DD00220D2109
:104370000220FFF7D3FD00233B6102E03B690133DC
:104380003B613B69044A9342F8DDD9E76C000020A9
:104390000CED00E00400FA059F8601000D488546FB
:1043A000AFF300800C480D490D4A002302E0D458B9
:1043B000C4500433C4188C42F9D30A4A0A4C00236F
:1043C00001E013600432A242FBD300F011F8FFF7C2
:1043D00061FFFEE7005000200000002000000020E8
:1043E000644400080000002070000020FEE7000088
:1043F00070B500250C4E0D4CA41BA410A54209D18C
:1044000000F01AF800250A4E0A4CA41BA410A5427D
:1044100005D170BD56F8253098470135EEE756F8BE
:10442000253098470135F2E75C4400085C440008F9
:104430005C44000860440008F8B500BFF8BC08BC44
:104440009E467047F8B500BFF8BC08BC9E46704752
:0C445000526573746172740A0000000071
:04445C0055390008C6
:0444600031390008E6
:040000050800439D0F
:00000001FF
